:100000000C945D000C9485000C9485000C94850084
:100010000C9485000C9485000C9485000C9485004C
:100020000C9485000C9485000C9485000C9485003C
:100030000C9485000C9485000C9485000C9485002C
:100040000C94AE050C9485000C9485000C948500EE
:100050000C9485000C9485000C9485000C9485000C
:100060000C9485000C94850000000008000201003B
:100070000003040700000000000000000102040863
:100080001020408001020408102001020408102002
:10009000040404040404040402020202020203032E
:1000A0000303030300000000250028002B000000CC
:1000B0000000240027002A00330311241FBECFEFC5
:1000C000D8E0DEBFCDBF11E0A0E0B1E0E2E8FDE0A6
:1000D00002C005900D92A033B107D9F721E0A0E34B
:1000E000B1E001C01D92AA35B207E1F710E0CDE5FD
:1000F000D0E004C02197FE010E94B906CC35D1079B
:10010000C9F70E9444020C94BF060C940000CF92E1
:10011000EF920F93019791F46F3F7F4F79F46894BA
:10012000CC24C1F80F2EF3E0EF2EF02D04E025E0F3
:1001300046E067E089E391E00E9488050F91EF9027
:10014000CF900895FC0188B1877F88B988B182601B
:1001500088B940E050E048305105ECF421E030E04F
:10016000042E02C0220F331F0A94E2F72E233F23EE
:100170001216130624F498B1946098B903C088B19C
:100180008B7F88B998B1986098B998B1977F98B9E2
:100190004F5F5F4FE0CF80E090E088309105C4F47E
:1001A0009B01082E02C0359527950A94E2F720FF9F
:1001B00004C028B1246028B903C028B12B7F28B916
:1001C00028B1286028B928B1277F28B90196E5CF42
:1001D00088B18B7F88B988B18D7F88B90895BC01BB
:1001E00088B1877F88B988B1826088B940E050E0E3
:1001F000483051051CF521E030E0042E02C0220FEA
:10020000331F0A94E2F7262337231216130624F429
:1002100098B1946098B903C088B18B7F88B998B1C0
:10022000986098B94730510519F487B18B7F87B929
:1002300098B1977F98B94F5F5F4FDACF20E030E0F9
:1002400060E070E028303105ACF4329B0AC041E038
:1002500050E0022E02C0440F551F0A94E2F7642BAF
:10026000752B98B1986098B998B1977F98B92F5F1E
:100270003F4FE8CF87B1846087B988B18B7F88B959
:1002800088B18D7F88B9CB01089560E870E080E87F
:1002900090E00E94A200E4E3F1E060817181629548
:1002A0007295707F7627607F762782819381682B95
:1002B000792B84E890E00E94A200E0E3F1E0608105
:1002C000718162957295707F7627607F7627828133
:1002D0009381682B792B82E890E00E94A20060E075
:1002E00070E080E890E00E94A200089585E890E028
:1002F0000E94EF009C01207733273595279535958F
:1003000027953595279535952795E4E3F1E03183D9
:1003100020838F7099279383828383E890E00E94E3
:10032000EF009C0120773327359527953595279544
:100330003595279535952795E0E3F1E031832083C6
:100340008F709927938382830895CF93DF9389E3F6
:1003500091E00E94C10480910001811118C061E008
:1003600071E089E391E00E947D0380913801811161
:1003700007C06CE071E089E391E00E947D030DC04D
:1003800061E171E089E391E00E947D0306C068E1CC
:1003900071E089E391E00E947D0341E060E089E340
:1003A00091E00E94C804C4E3D1E0688179814AE009
:1003B00050E089E391E00E9417046A817B814AE062
:1003C00050E089E391E00E94170462E271E089E362
:1003D00091E00E947D03C0E3D1E0688179814AE029
:1003E00050E089E391E00E9417046A817B814AE032
:1003F00050E089E391E00E941704DF91CF910895C6
:1004000080910001811106C00E94450181E0809326
:100410000001089510920001089580913801811122
:1004200004C081E080933801089510923801089546
:10043000809179008230A1F028F4882349F081303E
:1004400059F01EC08430A1F078F08530A9F018C0B2
:1004500084E08093B300089588E08093B30008950A
:1004600080E18093B300089580E28093B300089503
:1004700080E48093B300089580E88093B3000895EA
:1004800080EC8093B300089520E042E060E189E3CE
:1004900091E00E94E30487B18E6087B984B18E7FBA
:1004A00084B984B18D7F84B984B18D7F84B9E1E84A
:1004B000F0E0808184608083109285001092840037
:1004C00084B1886084B980E88093B300E0EBF0E009
:1004D000808180688083808183608083E1EBF0E0AD
:1004E000808182608083EAE7F0E08081876080839A
:1004F000ACE7B0E08C9180648C938C9180628C939B
:1005000080818062808310927B00808180688083FC
:100510008081806480830E94180280910001813074
:1005200009F47BC020F0823009F47AC07DC01899AC
:1005300066C08091380181112AC0E4E3F1E0828134
:1005400093810196938382830A973CF08081918105
:1005500001969183808313821282E4E3F1E080812B
:1005600091819C01220F331F880F991F880F991FBB
:10057000880F991F820F931F22813381820F931F4F
:10058000489794F111821082138212822DC0E0E309
:10059000F1E0828193810196938382830A973CF0F4
:1005A0008081918101969183808313821282809150
:1005B0003001909131019C01220F331F880F991F48
:1005C000880F991F880F991F820F931F2091360162
:1005D00030913701820F931FCC9734F0E0E3F1E0C4
:1005E00011821082138212820E94A5012FEF83ECE8
:1005F00099E0215080409040E1F700C000001A9936
:1006000016C00E940D022FEF83EC99E0215080402C
:100610009040E1F700C000000AC00E94760107C0C8
:1006200081E08093000103C082E08093000119996A
:100630000BC00E9400022FEF83EC99E02150804014
:100640009040E1F700C00000809184009091850007
:100650008936984108F45FCF0E94A5011092850069
:100660001092840058CF6FEF7FEF81E090E00E94FE
:100670008700089580E090E008950895CF92DF927A
:10068000EF92FF920F931F93CF93DF936C017A0148
:100690008B01C0E0D0E0CE15DF0581F0D8016D916F
:1006A0008D01D601ED91FC910190F081E02DC60104
:1006B0000995892B11F02196EECF7E01C701DF91BC
:1006C000CF911F910F91FF90EF90DF90CF90089501
:1006D0006115710579F0FB0101900020E9F7319770
:1006E000AF01461B570BDC01ED91FC910280F381B9
:1006F000E02D099480E090E008950C946803DC01FB
:10070000ED91FC910190F081E02D09948F929F92E0
:10071000AF92BF92EF92FF920F931F93CF93DF930D
:10072000CDB7DEB7A1970FB6F894DEBF0FBECDBF31
:100730007C01FA01CB0119A2223008F42AE08E01D3
:100740000F5D1F4F822E912CA12CB12CBF01A50152
:1007500094010E949706F901CA01015011096A30FB
:1007600010F4605D01C0695CD8016C93232B242BCD
:10077000252B61F7B801C7010E946803A1960FB647
:10078000F894DEBF0FBECDBFDF91CF911F910F91C7
:10079000FF90EF90BF90AF909F908F900895CF9271
:1007A000DF92EF92FF920F931F93CF93DF93211568
:1007B000310581F4DC01ED91FC910190F081E02D97
:1007C000642FDF91CF911F910F91FF90EF90DF90F9
:1007D000CF9009942A30310501F577FF1DC06A01D9
:1007E0007B01EC016DE20E947F038C0144275527B9
:1007F000BA014C195D096E097F092AE0CE010E94F9
:100800008603800F911FDF91CF911F910F91FF9071
:10081000EF90DF90CF9008952AE0DF91CF911F9164
:100820000F91FF90EF90DF90CF900C9486039A0188
:10083000AB01770F660B770B0C94CF03CF93DF934D
:10084000EC0160E08E810E94680681E090E00E94E9
:10085000F80561E08E810E94680681E090E00E94C8
:10086000F80560E08E810E94680684E690E0DF91E2
:10087000CF910C94F805CF92DF92EF92FF920F93F5
:100880001F93CF93DF936C017C0187E0E80EF11C8E
:10089000C0E0D0E0062F10E0B8010C2E02C0759524
:1008A00067950A94E2F76170F70181917F010E94D8
:1008B00068062196C430D10579F7C601DF91CF9142
:1008C0001F910F91FF90EF90DF90CF900C941E043A
:1008D000CF92DF92EF92FF920F931F93CF93DF930C
:1008E0006C017C0187E0E80EF11CC0E0D0E0062F2F
:1008F00010E0B8010C2E02C0759567950A94E2F7D6
:100900006170F70181917F010E9468062196C830CD
:10091000D10579F7C601DF91CF911F910F91FF901B
:10092000EF90DF90CF900C941E041F93CF93DF9332
:10093000EC01162F642F8C810E9468068D818F3FF9
:1009400019F060E00E9468068F85612F84FF06C061
:10095000CE01DF91CF911F910C94680470E084E088
:10096000759567958A95E1F7CE010E943B04612F4A
:10097000CE01DF91CF911F910C943B0440E00C9489
:10098000950461E00E94BE0480ED97E00C94F805A8
:10099000FC01443008F043E08389481710F04FEF22
:1009A000480FDF01A40FB11D54969C91690F606838
:1009B000CF010C94BE04FC016089262F2460208B9B
:1009C0006C600C94BE04EF92FF920F931F93CF9331
:1009D000DF93EC01423018F08F8588608F874B8B56
:1009E0001C8A80E48D8B6E8B70E0605C7F4F6F8B18
:1009F000222329F0413019F48F8584608F8761E0CC
:100A00008C810E942C068D818F3F19F061E00E943D
:100A10002C0661E08E810E942C067E0187E0E80EA4
:100A2000F11C00E010E08F8584FD03C084E090E0BD
:100A300002C088E090E0081719074CF461E0F70164
:100A400081917F010E942C060F5F1F4FECCF80E544
:100A500093EC0E94F80560E08C810E94680660E0DB
:100A60008E810E9468068D818F3F19F060E00E94A0
:100A700068066F8564FD1DC063E0CE010E943B04E3
:100A800084E991E10E94F80563E0CE010E943B04F5
:100A900084E991E10E94F80563E0CE010E943B04E5
:100AA00086E990E00E94F80562E0CE010E943B04D6
:100AB00016C06062CE010E94BE0484E991E10E94EA
:100AC000F8056F856062CE010E94BE0486E990E061
:100AD0000E94F8056F856062CE010E94BE046F859A
:100AE0006062CE010E94BE0484E0888BCE010E9429
:100AF000DB04CE010E94C10482E0898B66E0CE0156
:100B0000DF91CF911F910F91FF90EF900C94BE0455
:100B1000CF92EF920F93FC011382128288E291E050
:100B20009183808364838FEF858346832783008747
:100B3000E186C2861386148615861686178620E0FF
:100B400041E060E1CF010F91EF90CF900C94E3046E
:100B500041E00E94950481E090E008951F920F9279
:100B60000FB60F9211242F933F938F939F93AF93C0
:100B7000BF938091520190915301A0915401B09183
:100B800055013091510123E0230F2D3720F40196B8
:100B9000A11DB11D05C026E8230F0296A11DB11DA0
:100BA000209351018093520190935301A0935401DB
:100BB000B09355018091560190915701A091580131
:100BC000B09159010196A11DB11D809356019093DA
:100BD0005701A0935801B0935901BF91AF919F91D4
:100BE0008F913F912F910F900FBE0F901F901895EE
:100BF0008230910538F0880F991F880F991F05974B
:100C00000197F1F70895833081F028F4813099F04D
:100C10008230A1F008958730A9F08830B9F084308F
:100C2000D1F4809180008F7D03C0809180008F7708
:100C300080938000089584B58F7702C084B58F7D3E
:100C400084BD08958091B0008F7703C08091B0007B
:100C50008F7D8093B0000895CF93DF9390E0FC01E7
:100C6000E458FF4F2491FC01E057FF4F8491882303
:100C700061F190E0880F991FFC01E255FF4FC5918B
:100C8000D491FC01EC55FF4FA591B491611109C0BD
:100C90009FB7F8948881209582238883EC912E2336
:100CA0000BC0623061F49FB7F8948881322F309581
:100CB00083238883EC912E2B2C939FBF06C08FB784
:100CC000F894E8812E2B28838FBFDF91CF91089570
:100CD0001F93CF93DF93282F30E0F901E859FF4F9E
:100CE0008491F901E458FF4FD491F901E057FF4F87
:100CF000C491CC23C1F0162F81110E940306EC2F62
:100D0000F0E0EE0FFF1FEC55FF4FA591B4919FB798
:100D1000F894111104C08C91D095D82302C0EC91A5
:100D2000DE2BDC939FBFDF91CF911F910895A1E24D
:100D30001A2EAA1BBB1BFD010DC0AA1FBB1FEE1F55
:100D4000FF1FA217B307E407F50720F0A21BB30BA0
:100D5000E40BF50B661F771F881F991F1A9469F71C
:100D600060957095809590959B01AC01BD01CF0178
:100D70000895EE0FFF1F0590F491E02D0994F8946B
:020D8000FFCFA3
:100D820002536574204D6F64653A2000686F757276
:100D9200006D696E7574650054696D65204D6F64F0
:100DA20065003A0000000000A8053E033A033D0337
:00000001FF
