S017000046696E616C41737369676E6D656E742E737265630A
S11300000C9435000C945D000C945D000C945D0020
S11300100C945D000C945D000C945D000C945D00E8
S11300200C945D000C945D000C945D000C945F00D6
S11300300C945D000C945D000C945D000C945D00C8
S11300400C945D000C945D000C945D000C945D00B8
S11300500C945D000C94A8000C945D000C945D005D
S11300600C945D000C945D00300411241FBECFEF8E
S1130070D8E0DEBFCDBF11E0A0E0B1E0E6E1F9E0F9
S113008002C005900D92AE30B107D9F711E0AEE091
S1130090B1E001C01D92AA31B107E1F710E0CAE650
S11300A0D0E004C02297FE010E948504C836D1071F
S11300B0C9F70E94F9030C9489040C9400001F9260
S11300C00F920FB60F9211248F939F93EF93FF9388
S11300D081E090E0909316018093150180911801BE
S11300E09091190101979093190180931801E5E209
S11300F0F0E0808190E289278083FF91EF919F91C6
S11301008F910F900FBE0F901F901895AAE7B0E043
S11301108C9187608C93ECE7F0E08081806480832D
S11301208081806280838C9180628C9310927B00AA
S11301308C9180688C938C9180648C938C91886072
S11301408C937894EAE7F0E080818064808308955A
S11301501F920F920FB60F9211248F93EF93FF9378
S113016080917900893230F0E5E2F0E080818061AD
S1130170808305C0E5E2F0E080818F7E8083FF917B
S1130180EF918F910F900FBE0F901F901895339998
S113019031C080910E01813099F0813018F08230A5
S11301A049F51CC081E080930E0120ED37E040E961
S11301B051E0CA010197F1F721503040D1F7089579
S11301C082E080930E0120ED37E040E951E0CA015E
S11301D00197F1F721503040D1F7089510920E01A4
S11301E020ED37E040E951E0CA010197F1F72150D1
S11301F03040D1F70895E1E8F0E090819C6090836D
S113020092E090936F00382F20E0442737FD40950B
S1130210542F60E074E284EF90E00E944D0421507A
S1130220304030938900209388000895CF92DF9264
S1130230EF92FF920F931F93F89481E080930A0149
S113024010921401109213011092170131991CC0DD
S113025080910F0190911001019790931001809368
S11302600F01992334F488E190E090931001809376
S11302700F0120ED37E040E951E0CA010197F1F7A1
S113028021503040D1F71BC0329919C080910F0121
S11302909091100101969093100180930F0149975A
S11302A024F01092100110920F0120ED37E040E984
S11302B051E0CA010197F1F721503040D1F7E4E849
S11302C0F0E080819181208131818091880090913A
S11302D08900969587952817390708F046C025E2C6
S11302E030E0D9018C918F608C938C918E7F8C93AC
S11302F0C0900F01D0901001C6016AE070E00E9426
S11303003A0400E011E0F801E60FF71F80810F2E98
S1130310FBE2EF2EFF24F02DF7018083E0E2FEE400
S1130320CF010197F1F7D9018C9181608C938C9165
S11303308F608C938C918D7F8C93C6016AE070E002
S11303400E943A04080F191FD8018C91D7018C938D
S11303503197F1F7F90180818260808311C0E5E271
S1130360F0E080818F6080830BC020918400309105
S1130370850080918800909189002817390778F7C3
S11303801F910F91FF90EF90DF90CF900895CF923F
S1130390DF92EF92FF920F931F9331991CC08091CB
S11303A01101909112010197909312018093110110
S11303B0992334F48BE390E090931201809311011C
S11303C020ED37E040E951E0CA010197F1F72150EF
S11303D03040D1F71BC0329919C08091110190911E
S11303E0120101969093120180931101CC9724F08D
S11303F0109212011092110120ED37E040E951E012
S1130400CA010197F1F721503040D1F7E4E8F0E058
S1130410808191812081318180918800909189002F
S1130420969587952817390708F046C025E230E0ED
S1130430D9018C918F608C938C918B7F8C93C0901D
S11304401101D0901201C6016AE070E00E943A04E2
S113045000E011E0F801E60FF71F80810F2EFBE2A8
S1130460EF2EFF24F02DF7018083E0E2FEE4CF01BC
S11304700197F1F7D9018C9184608C938C918F60F2
S11304808C938C91877F8C93C6016AE070E00E9404
S11304903A04080F191FD8018C91D7018C93319716
S11304A0F1F7F90180818860808311C0E5E2F0E012
S11304B080818F6080830BC02091840030918500FF
S11304C080918800909189002817390778F71F9147
S11304D00F91FF90EF90DF90CF900895CF92DF922D
S11304E0EF92FF920F931F93CF93DF9380911501A7
S11304F090911601019769F4809113019091140170
S11305000196909314018093130110921601109296
S113051015018091130190911401CC976CF0809196
S1130520110190911201019690931201809311018F
S113053010921401109213018091110190911201F3
S1130540CC976CF080910F019091100101969093DB
S1130550100180930F0110921201109211018091E9
S11305600F0190911001499764F0109210011092BC
S11305700F011092120110921101109214011092A5
S11305801301329910C08091170191E0892780935B
S1130590170120ED37E040E951E0CA010197F1F776
S11305A021503040D1F780911701882309F08EC083
S11305B025E230E0D9018C918F608C938C918E7FF1
S11305C08C93C0910F01D0911001CE016AE070E0CC
S11305D00E943A04FB01E050FF4F80818BB980E216
S11305E09EE40197F1F7F901808181608083808125
S11305F08F60808380818D7F8083209184003091FF
S1130600850080918800909189009695879582173E
S1130610930760F0CE016AE070E00E943A04FC01A6
S1130620E050FF4F808180688BB90AC0CE016AE038
S113063070E00E943A04FC01E050FF4F80818BB9C6
S11306400F2EF0E2EF2EFEE4FF2EF02DC7010197EE
S1130650F1F725E230E0D9018C9182608C938C9182
S11306608F608C938C918B7F8C93C0901101D09070
S11306701201C6016AE070E00E943A0400E011E051
S1130680F801E60FF71F8081EBE2F0E08083C701F9
S11306900197F1F7D9018C9184608C938C918F60D0
S11306A08C938C91877F8C93C6016AE070E00E94E2
S11306B03A04080F191FD8018C918083C701019750
S11306C0F1F7F9018081886080834EC025E230E033
S11306D0D9018C918F608C938C918B7F8C938091BA
S11306E01301909114016AE070E00E943A0400E062
S11306F011E0F801E60FF71F8081EBE2F0E0808360
S113070080E29EE40197F1F7D9018C9184608C9387
S11307108C918F608C938C91877F8C938091130143
S1130720909114016AE070E00E943A04080F191FC6
S1130730D8018C9180832091840030918500809130
S1130740880090918900969587958217930718F0F1
S113075080818068808380E29EE40197F1F7E5E27E
S1130760F0E0808188608083DF91CF911F910F91A9
S1130770FF90EF90DF90CF900895809118019091B1
S11307801901009761F4E5E2F0E080818F7E8083B7
S11307908FEF9FEF909319018093180117C0019771
S11307A00597A0F4319903C010920B010AC08091FF
S11307B00B01882331F0E5E2F0E0808180618083E1
S11307C005C0E5E2F0E080818F7E8083319910C01E
S11307D0E5E2F0E0808190E18927808328EE33E030
S11307E040E951E0CA010197F1F721503040D1F7B7
S11307F008950F931F93CF93DF938FEF84B98AB932
S113080017B80E94860081E00E94FB0008EE13E006
S1130810C0E9D1E00E94C70080910E01813041F00F
S1130820813018F08230B1F706C00E941601F2CF71
S11308300E94C701EFCF80910A01882361F0F894E8
S11308409801CE010197F1F721503040D1F7789407
S113085010920A0102C00E946E020E94BD03DACF08
S113086080910C0190910D0105969093190180934C
S11308701801089597FB092E07260AD077FD04D0A6
S11308802ED006D000201AF4709561957F4F0895FC
S1130890F6F7909581959F4F0895A1E21A2EAA1B11
S11308A0BB1BFD010DC0AA1FBB1FEE1FFF1FA2171C
S11308B0B307E407F50720F0A21BB30BE40BF50B19
S11308C0661F771F881F991F1A9469F760957095A2
S11308D0809590959B01AC01BD01CF010895AA1BA1
S11308E0BB1B51E107C0AA1FBB1FA617B70710F017
S11308F0A61BB70B881F991F5A95A9F78095909549
S1130900BC01CD010895EE0FFF1F0590F491E02D79
S10909100994F894FFCFE6
S11109163F065B4F666D7D077F6F0101070092
S9030000FC
